:020000040800F2
:10000000A8AB002005C700085DB100085FB100087B
:1000100061B1000863B1000865B10008000000008C
:1000200000000000000000000000000067B10008B0
:1000300069B10008000000006BB100086DB1000854
:100040001FC700081FC700081FC700081FC70008F8
:100050001FC700081FC7000871B100081FC70008AC
:100060001FC700081FC700081FC700081FC70008D8
:100070001FC700081FC700081FC700081FC70008C8
:100080001FC700081FC700081FC700081FC70008B8
:100090001FC700081FC700081FC700081FC70008A8
:1000A0001FC7000873B100081FC700081FC700085A
:1000B00079B100081FC700081FC700081FC7000844
:1000C0001FC700081FC700081FC700081FC7000878
:1000D0001FC700081FC700081FC700081FC7000868
:1000E0001FC700081FC700081FC700081FC7000858
:1000F0001FC700081FC700081FC700081FC7000848
:100100001FC700081FC700081FC700081FC7000837
:100110001FC700081FC700081FC700081FC7000827
:100120001FC700081FC700081FC700081FC7000817
:100130001FC700081FC700081FC700081FC7000807
:100140001FC700081FC700081FC700081FC70008F7
:100150001FC700081FC700081FC700081FC70008E7
:100160001FC700081FC700081FC700081FC70008D7
:100170001FC700081FC700081FC700081FC70008C7
:100180001FC700081FC7000800F002F800F047F87A
:100190000AA090E8000C82448344AAF10107DA45E2
:1001A00001D100F03CF8AFF2090EBAE80F0013F0ED
:1001B000010F18BFFB1A43F00103184758CC010088
:1001C00078CC0100103A24BF78C878C1FAD8520719
:1001D00024BF30C830C144BF04680C6070470000C1
:1001E0000023002400250026103A28BF78C1FBD840
:1001F000520728BF30C148BF0B6070471FB50EF0D3
:1002000084FB9DE803000CF009FC0CF028FB0CF0CB
:1002100083FB1FBD10B500200CF066FD10BD0CF077
:100220005AFC1146FFF7EAFF00F022F80CF092FCAE
:1002300003B4FFF7EFFF03BC0CF09AFC0B49D1F8B5
:1002400000C04A685CF8043B1068184442F8040B8C
:100250008C4528BFA1F1DC0C8A4228BFA1F1DC0249
:10026000C1F800C04A6020F0004070473CA5002063
:100270002DED028B8EB000F071F94FF4FA7000F0A2
:10028000A1F90AF0F7F80AF06CF80AF039F90AF067
:1002900089F90AF006FA934A4FF0C04192480CF0EF
:1002A00075F8924E716930690D910C90F169B069E1
:1002B0000B910A908E480DF0C3FD8D480D9A0C9954
:1002C0000DF0A4FD8B4C20600025ADF83050ADF84A
:1002D00032504FF4E670ADF83600ADF83400864881
:1002E0000AF083FB236884480D9A0C990AF080FB7E
:1002F0006060236880480D9A0C990AF079FB606869
:1003000006F1380164300DF0E5F900217B480AF070
:1003100040FE012179480AF0E5FC6420ADF8360082
:10032000ADF83400ADF830003220ADF832009FED6A
:10033000748A716A306A09910890F16AB06A07910B
:100340000690716B306B05910490059A0499606872
:100350000AF0BAFA0646059A049960680AF0B4FAF7
:1003600002950395F2EE040AB2EE0E0A6548099A68
:1003700008990BF0E9FB142162480BF068FC634913
:100380004FF4FA73604AA1F16C000BF04AFD5F492B
:100390004FF44873554AA1F16C000BF042FD6068C0
:1003A00000210C300DF002F960680022314618304F
:1003B0000DF0DDF96068314618300DF092F95148C2
:1003C0000BF0A6FC606818300DF0BEF94D480BF03C
:1003D000C8FB6068F0EE000AB0EE080A18300DF0B5
:1003E0008BFA009560683346079A069918300DF02D
:1003F000D5F9B0EE480A6068F0EE400A18300DF00A
:100400007BFA0B9B0A9A3D4821680AF04FFDC6E72C
:1004100003B42DED040B8BB2B6EE000ADDED010A3C
:1004200021EE000AFDEEE00A10EE900ADDED000A72
:1004300002B2FDEEE00A10EE900A01B22D484068CB
:1004400006B038300DF001BBFDEEE00ABDEEC00A8B
:1004500010EE900A02B210EE100A01B22548406870
:100460000AF04EBAFDEEE00ABDEEC00A10EE900AA8
:1004700002B210EE100A01B21E4840680AF050BAEB
:10048000FDEEE00ABDEEC00A8BB210EE900A02B299
:1004900010EE100A01B2174840680AF01FBA10B5F2
:1004A0001B480BF0A5F81B480BF0A2F81A480BF0FC
:1004B0009FF81A480BF09CF819480BF099F8194866
:1004C0000BF096F818480BF01AF90E480BF034FBB5
:1004D00016480BF050FCBDE81040154A15490CF0C9
:1004E000D8BB0000FFFF0E00FCA3002020F1000895
:1004F00040A40020000000204CA4002030A40020D4
:10050000000000006401002028F10008F001002034
:1005100024000020500000207C000020A8000020C3
:10052000D4000020000100202C01002084010020C4
:100530000000000881BD0008704710B5044609F0AE
:1005400009FE4FF47A72B0FBF2F000F010F90022CD
:100550002146501E00F0B5F8002010BD10B54B48E4
:10056000016841F400710160016841F4806101603B
:10057000032000F097F80F20FFF7DFFFFFF7DCFF05
:10058000002010BD704710B5414A4FF0FF30106099
:1005900000211160121D106011603E4A1060116050
:1005A000121D10601160121D10601160FFF7EAFF4C
:1005B000002010BD38480168491C0160704736486A
:1005C0000068704731B5FFF7FAFF0446FFF7F7FF01
:1005D0000099001B8842F9D338BD4FF0E020016933
:1005E00021F00201016170474FF0E020016941F004
:1005F0000201016170472948704729480068000CD2
:10060000704727480068C0F30B00704724484168D2
:1006100041F00101416070472148416821F001012A
:10062000416070471E48416841F0020141607047D7
:100630001B48416821F00201416070471848416839
:1006400041F00401416070471548416821F0040100
:1006500041607047012090FAA0F1B1FA81F1890060
:1006600001F1844101F51C11C1F80004704701211A
:1006700091FAA1F10020B1FA81F1890001F18441E0
:1006800001F51C11C1F8000470470000003C024055
:100690002038024010380240080000200001030109
:1006A000002004E000F007007A4A11684FF6FF03CB
:1006B000194041EA002040F0FD7040F08060106079
:1006C000704710B4734B1B68C3F30223C3F1070CCC
:1006D000BCF1040F01D94FF0040C1C1D072C01D2F2
:1006E000002300E0DB1E012404FA0CFCACF1010C39
:1006F0000CEA0101994004FA03F35B1E1A4011430E
:10070000002808DA00F00F0000F1E020090180F86D
:10071000141D10BC704700F1E020090180F800149E
:1007200010BC704700F01F01012202FA01F14009DC
:10073000800000F1E020C0F80011704700F01F01B8
:10074000012202FA01F14009800000F1E020C0F826
:1007500080117047BFF34F8F4E4801684E4A01F435
:10076000E06111430160BFF34F8F00BFFDE7401E02
:10077000B0F1807F01D3012070474FF0E021486144
:10078000464AF02010700020886107200861002090
:10079000704740480068C0F30220704730B400281A
:1007A00008DA00F00F0000F1E02090F8140D4FEA95
:1007B000101C05E000F1E02090F800044FEA101C46
:1007C00001F00700C0F10701042900D90421041D2C
:1007D000072C01D2002000E0C01E01242CFA00F5F5
:1007E00004FA01F1491E2940116004FA00F0401E8C
:1007F00000EA0C00186030BC704700F01F010122B5
:1008000002FA01F14009800000F1E020C0F8001276
:1008100070474109890001F1E021D1F8001200F090
:100820001F00012202FA00F0014201D001207047AE
:100830000020704700F01F01012202FA01F1400977
:10084000800000F1E020C0F8801270474109890063
:1008500001F1E021D1F8001300F01F00012202FA9B
:1008600000F0014201D001207047002070474FF096
:10087000E021042804D0086920F0040008617047D2
:10088000086940F0040008617047704710B5FFF731
:10089000FCFF10BD0CED00E00400FA0523ED00E0C4
:1008A00030B4002824D0426A022180F83510036851
:1008B0001968DFF884C401EA0C01D0F804C0846828
:1008C00005694CEA040CC4682C434CEA040C4469E6
:1008D0004CEA040C84694CEA040CC4694CEA040C2C
:1008E000046A4CEA040C4CEA0101042A03D008E033
:1008F00030BC01207047D0F830C0C26A42EA0C0216
:10090000114319600368596921F00701426A1143D4
:10091000042A01D1826A114359610021C164012175
:1009200080F8351030BC002070472DE9F04F0028CA
:1009300039D090F83510022938D001680A6822F0C1
:1009400001020A60026800211160026851600268B9
:1009500091600268D16002681161026821215161D1
:10096000DFF8D8E3DFF8DCB30168DFF8D4A3F64A98
:10097000DFF8D8C3F64CF74DF74EF84FDFF8E083B9
:10098000DFF8E0930BF10403714540D991423BD06D
:10099000994239D0614537D0A14235D0A94208D11A
:1009A0004FF4807A30E00120BDE8F08F0120BDE8EF
:1009B000F08FB14202D14FF4807A25E0B94202D1E2
:1009C0004FF4807A20E0414502D14FF4807A1BE059
:1009D000494502D14FF4802A16E0DFF88CA3514537
:1009E00002D14FF4802A0FE0DFF880A3514502D1F5
:1009F0004FF4802A08E0DFF878A3514502D14FF484
:100A0000802A01E04FF0807ACBF800A0BAE0DFF84E
:100A100064E371453BD9914235D0994233D0614569
:100A200031D0A1422FD0A94202D14FF4807A2AE0DE
:100A3000B14202D14FF4807A25E0B94202D14FF49D
:100A4000807A20E0414502D14FF4807A1BE049458D
:100A500002D14FF4802A16E0DFF80CA3514502D1F1
:100A60004FF4802A0FE0DFF804A3514502D14FF480
:100A7000802A08E0DFF8F8A2514502D14FF4802A1D
:100A800001E04FF0807ABC49C1F800A07AE0DFF8BD
:100A9000ECE271453BD9914235D0994233D0614562
:100AA00031D0A1422FD0A94202D14FF4807A2AE05E
:100AB000B14202D14FF4807A25E0B94202D14FF41D
:100AC000807A20E0414502D14FF4807A1BE049450D
:100AD00002D14FF4802A16E0DFF88CA2514502D1F2
:100AE0004FF4802A0FE0DFF884A2514502D14FF481
:100AF000802A08E0DFF878A2514502D14FF4802A1D
:100B000001E04FF0807A9E49C1F80CA03AE0914292
:100B100035D0994233D0614531D0A1422FD0A9427E
:100B200002D14FF4807A2AE0B14202D14FF4807AA8
:100B300025E0B94202D14FF4807A20E0414502D14C
:100B40004FF4807A1BE0494502D14FF4802A16E029
:100B5000DFF814A2514502D14FF4802A0FE0DFF8EC
:100B60000CA2514502D14FF4802A08E0DFF800A220
:100B7000514502D14FF4802A01E04FF0807A80493C
:100B8000C1F808A0DFF8B4A10168514542D99142EB
:100B900001D120213BE0994201D1202137E061457C
:100BA00001D1202133E0A14201D120212FE0A9422F
:100BB00002D14FF400612AE0B14202D14FF400614A
:100BC00025E0B94202D14FF4006120E0414502D155
:100BD0004FF400611BE0494502D14FF4001116E0CB
:100BE000DFF884E1714502D14FF400110FE0DFF826
:100BF0007CE1714502D14FF4001108E0DFF870E1AB
:100C0000714502D14FF4001101E04FF00061CBF8C3
:100C10000010FCE0DFF85CE1714544D9914201D15C
:100C200020213BE0994201D1202137E0614501D1EB
:100C3000202133E0A14201D120212FE0A94202D19D
:100C40004FF400612AE0B14202D14FF4006125E087
:100C5000B94202D14FF4006120E0414502D14FF486
:100C600000611BE0494502D14FF4001116E0DFF8A6
:100C7000F8E0714502D14FF400110FE0DFF8ECE02D
:100C8000714502D14FF4001108E0DFF8E4E071454E
:100C900002D14FF4001101E04FF00061DFF8D8E01D
:100CA000CEF80010B3E0DFF8D4E071456BD9914283
:100CB00001D120213BE0994201D1202137E061455B
:100CC00001D1202133E0A14201D120212FE0A9420E
:100CD00002D14FF400612AE0B14202D14FF4006129
:100CE00025E0B94202D14FF4006120E0414502D134
:100CF0004FF400611BE0494502D14FF4001116E0AA
:100D0000DFF864E0714502D14FF400110FE0DFF825
:100D10005CE0714502D14FF4001108E0DFF850E0CB
:100D2000714502D14FF4001101E04FF00061DFF88E
:100D300050E0CEF80C106AE03F8010F0586402409A
:100D4000040080000C6402401060024070600240A9
:100D500070640240286002402864024088600240BB
:100D6000886402404060024040640240A06002404B
:100D7000A0640240B860024008640240586002402B
:100D800000600240FFE7914201D120213BE09942FF
:100D900001D1202137E0614501D1202133E0A1427A
:100DA00001D120212FE0A94202D14FF400612AE0B5
:100DB000B14202D14FF4006125E0B94202D14FF4B3
:100DC000006120E0414502D14FF400611BE049453C
:100DD00002D14FF4001116E0DFF84CE7714502D163
:100DE0004FF400110FE0DFF844E7714502D14FF4F2
:100DF000001108E0DFF838E7714502D14FF4001127
:100E000001E04FF00061DFF82CE7CEF80810016830
:100E1000514542D9914201D108213BE0994201D18B
:100E2000082137E0614501D1082133E0A14201D119
:100E300008212FE0A94202D14FF400712AE0B1420B
:100E400002D14FF4007125E0B94202D14FF4007194
:100E500020E0414502D14FF400711BE0494502D129
:100E60004FF4002116E0DFF8C0E6714502D14FF4DF
:100E700000210FE0DFF8B4E6714502D14FF4002104
:100E800008E0DFF8ACE6714502D14FF4002101E043
:100E90004FF00071CBF80010D5E0DFF89CE671450B
:100EA00044D9914201D108213BE0994201D1082166
:100EB00037E0614501D1082133E0A14201D1082189
:100EC0002FE0A94202D14FF400712AE0B14202D1D1
:100ED0004FF4007125E0B94202D14FF4007120E0D7
:100EE000414502D14FF400711BE0494502D14FF456
:100EF000002116E0DFF830E6714502D14FF4002101
:100F00000FE0DFF828E6714502D14FF4002108E038
:100F1000DFF81CE6714502D14FF4002101E04FF0EB
:100F20000071DFF818E6CEF800108CE0DFF810E66C
:100F3000714544D9914201D108213BE0994201D148
:100F4000082137E0614501D1082133E0A14201D1F8
:100F500008212FE0A94202D14FF400712AE0B142EA
:100F600002D14FF4007125E0B94202D14FF4007173
:100F700020E0414502D14FF400711BE0494502D108
:100F80004FF4002116E0DFF8A0E5714502D14FF4DF
:100F900000210FE0DFF894E5714502D14FF4002104
:100FA00008E0DFF88CE5714502D14FF4002101E043
:100FB0004FF00071DFF87CE5CEF80C1043E0914271
:100FC00001D108213BE0994201D1082137E0614578
:100FD00001D1082133E0A14201D108212FE0A9422B
:100FE00002D14FF400712AE0B14202D14FF40071F6
:100FF00025E0B94202D14FF4007120E0414502D111
:101000004FF400711BE0494502D14FF4002116E076
:10101000DFF814E5714502D14FF400210FE0DFF84D
:101020000CE5714502D14FF4002108E0DFF800E53E
:10103000714502D14FF4002101E04FF00071DFF85B
:10104000F4E4CEF80810DFF8FCE40168DFF8F8A457
:1010500071453AD9914235D0994233D0614531D06A
:10106000A1422FD0A94202D14FF0400A2AE0B1425A
:1010700002D14FF0400A25E0B94202D14FF0400AB8
:1010800020E0414502D14FF0400A1BE0494502D122
:101090004FF4803A16E0DFF890A4514502D14FF4A6
:1010A000803A0FE0DFF884A4514502D14FF4803A32
:1010B00008E0DFF87CA4514502D14FF4803A01E00A
:1010C0004FF4800ACBF800A0BAE0DFF86CE4714579
:1010D0003BD9914235D0994233D0614531D0A142BC
:1010E0002FD0A94202D14FF0400A2AE0B14202D1EA
:1010F0004FF0400A25E0B94202D14FF0400A20E00B
:10110000414502D14FF0400A1BE0494502D14FF45E
:10111000803A16E0DFF810A4514502D14FF4803A2E
:101120000FE0DFF808A4514502D14FF4803A08E0FF
:10113000DFF8FCA3514502D14FF4803A01E04FF4AF
:10114000800AFE49C1F800A07AE0DFF8F4E37145B7
:101150003BD9914235D0994233D0614531D0A1423B
:101160002FD0A94202D14FF0400A2AE0B14202D169
:101170004FF0400A25E0B94202D14FF0400A20E08A
:10118000414502D14FF0400A1BE0494502D14FF4DE
:10119000803A16E0DFF890A3514502D14FF4803A2F
:1011A0000FE0DFF888A3514502D14FF4803A08E000
:1011B000DFF87CA3514502D14FF4803A01E04FF4AF
:1011C000800ADC49C1F80CA03AE0914235D099423E
:1011D00033D0614531D0A1422FD0A94202D14FF086
:1011E000400A2AE0B14202D14FF0400A25E0B9425C
:1011F00002D14FF0400A20E0414502D14FF0400AB1
:101200001BE0494502D14FF4803A16E0DFF818A3FD
:10121000514502D14FF4803A0FE0DFF810A3514559
:1012200002D14FF4803A08E0DFF804A3514502D11F
:101230004FF4803A01E04FF4800ABE49C1F808A09B
:10124000DFF800A3016851453FD9914201D1102137
:1012500038E0994201D1102134E0614501D11021DB
:1012600030E0A14201D110212CE0A94202D14FF47B
:10127000806127E0B14202D14FF4806122E0B9429F
:1012800002D14FF480611DE0414502D14FF48061ED
:1012900018E0494502D14FF4801113E0A24A91426F
:1012A00002D14FF480110DE0A04A914202D14FF4D7
:1012B000801107E09E4A914202D14FF4801101E073
:1012C0004FF08061CBF80010C6E0DFF86CA251450A
:1012D0003FD9914201D1102138E0994201D110212A
:1012E00034E0614501D1102130E0A14201D110214B
:1012F0002CE0A94202D14FF4806127E0B14202D133
:101300004FF4806122E0B94202D14FF480611DE0C8
:10131000414502D14FF4806118E0494502D14FF4B4
:10132000801113E0804A914202D14FF480110DE008
:101330007E4A914202D14FF4801107E07C4A9142EB
:1013400002D14FF4801101E04FF080617B4A1160BF
:1013500082E0DFF8ECA151453FD9914201D1102143
:1013600038E0994201D1102134E0614501D11021CA
:1013700030E0A14201D110212CE0A94202D14FF46A
:10138000806127E0B14202D14FF4806122E0B9428E
:1013900002D14FF480611DE0414502D14FF48061DC
:1013A00018E0494502D14FF4801113E05E4A9142A2
:1013B00002D14FF480110DE05C4A914202D14FF40A
:1013C000801107E05A4A914202D14FF4801101E0A6
:1013D0004FF08061574AD1603EE0914201D1102127
:1013E00038E0994201D1102134E0614501D110214A
:1013F00030E0A14201D110212CE0A94202D14FF4EA
:10140000806127E0B14202D14FF4806122E0B9420D
:1014100002D14FF480611DE0414502D14FF480615B
:1014200018E0494502D14FF4801113E03E4A914241
:1014300002D14FF480110DE03C4A914202D14FF4A9
:10144000801107E03A4A914202D14FF4801101E045
:101450004FF08061374A91600021C16480F83510F7
:1014600080F834100020BDE8F08F10B4D0F800C030
:10147000DCF8004024F48024CCF80040D0F800C010
:10148000CCF804308368402B05D00368996000686D
:10149000C26010BC704703689A600068C16010BCED
:1014A000704710B5044694F83400012816D0012086
:1014B00084F83400022084F835002068D0F800C099
:1014C0002CF0010CC0F800C02046FFF7CEFF2068CA
:1014D000016841F001010160002010BD022010BD33
:1014E00010B5044694F83400012843D0012084F854
:1014F0003400022084F835002068D0F800C02CF0B9
:10150000010CC0F800C02046FFF7AFFF206801685B
:1015100041F0100101602068016841F0080101609C
:101520002068016812E0000040640240A0600240B0
:10153000A064024000600240B860024008640240BB
:1015400058600240586402400100800041F00401EC
:1015500001602068416941F08001416120680168B3
:1015600041F0020101602068016841F00101016061
:10157000002010BD022010BD70B50446206801682F
:1015800021F001010160FFF71AF8054620680068A4
:101590004FF0000610F0010F14D0FFF710F8401BB9
:1015A000B0F57A7F09D9E06C40F02000E06484F85F
:1015B0003460032084F8350070BD2068006810F0A6
:1015C000010FEAD184F83460012084F8350000204E
:1015D00070BD2DE9F74F82B004460399F54DF64EE4
:1015E000F64F2068002905D0F54988424AD14FF0CE
:1015F000100A88E0F249884202D14FF0200A82E0C6
:10160000F049884202D14FF0200A7CE0EE4988423E
:1016100002D14FF0200A76E0EC49884202D14FF027
:10162000200A70E0EA49884202D14FF4006A6AE079
:10163000E849884202D14FF4006A64E0E6498842F2
:1016400002D14FF4006A5EE0E449884202D14FF4CF
:10165000006A58E0E249884202D14FF4001A52E091
:10166000A84202D14FF4001A4DE0B04202D14FF42B
:10167000001A48E0B84202D14FF4001A43E04FF09C
:10168000006A40E0CF49884202D14FF0100A3AE0A8
:10169000CD49884202D14FF0100A34E0CB4988424C
:1016A00002D14FF0100A2EE0C949884202D14FF40E
:1016B000806A28E0C749884202D14FF4806A22E05C
:1016C000C549884202D14FF4806A1CE0C349884270
:1016D00002D14FF4806A16E0C149884202D14FF42A
:1016E000801A10E0A84202D14FF4801A0BE0B042F9
:1016F00002D14FF4801A06E0B84202D14FF4801AAA
:1017000001E04FF0806AFEF75AFF0190B64AB549F2
:101710002068131FDFF8D4B2884203D9106800EAAA
:101720000A0012E0B249884203D9186800EA0A00A8
:101730000BE0B049884204D9DBF8040000EA0A0053
:1017400003E0DBF8000000EA0A00002840F01987F7
:10175000DFF8A48208F10309A24B2068984242D91D
:10176000A1490A689649884201D1082139E0954982
:10177000884201D1082134E09349884201D10821EF
:101780002FE09249884201D108212AE090498842FD
:1017900001D1411525E08F49884201D1411520E052
:1017A0008D49884201D141151BE08C49884201D105
:1017B000411516E08A49884202D14FF4002110E019
:1017C000A84202D14FF400210BE0B04202D14FF405
:1017D000002106E0B84202D14FF4002101E04FF0B1
:1017E00000710A40CDE08249884242D983490A68A3
:1017F0007349884201D1082139E07249884201D1F8
:10180000082134E07049884201D108212FE06F4956
:10181000884201D108212AE06D49884201D1411551
:1018200025E06C49884201D1411520E06A4988428F
:1018300001D141151BE06949884201D1411516E0EB
:101840006749884202D14FF4002110E0A84202D13A
:101850004FF400210BE0B04202D14FF4002106E02A
:10186000B84202D14FF4002101E04FF000710A406C
:1018700087E06049884242D9DBF804205049884219
:1018800001D1082139E04F49884201D1082134E0D3
:101890004D49884201D108212FE04C49884201D1AD
:1018A00008212AE04A49884201D1411525E04949E9
:1018B000884201D1411520E04749884201D14115B4
:1018C0001BE04649884201D1411516E0444988424F
:1018D00002D14FF4002110E0A84202D14FF40021C0
:1018E0000BE0B04202D14FF4002106E0B84202D131
:1018F0004FF4002101E04FF000710A4041E0DBF8B5
:1019000000202F49884201D1082139E02D49884221
:1019100001D1082134E02C49884201D108212FE06F
:101920002A49884201D108212AE02949884201D167
:10193000411525E02749884201D1411520E026497B
:10194000884201D141151BE02449884201D141154B
:1019500016E02349884202D14FF4002110E0A8424A
:1019600002D14FF400210BE0B04202D14FF400212C
:1019700006E0B84202D14FF4002101E04FF00071BF
:101980000A4098426AD91849D1F800C00C498842E7
:1019900001D141465FE00B49884201D141465AE0FE
:1019A0000949884201D1414655E00849884227D17A
:1019B000414650E040640240A0600240A064024002
:1019C0001060024010640240706002407064024087
:1019D0002860024028640240886002408864024017
:1019E00040600240586402400464024000600240CB
:1019F000B86002405860024001008000006402406C
:101A0000F849884201D1402125E0F749884201D1B7
:101A1000402120E0F549884201D140211BE0F449F2
:101A2000884201D1402116E0F249884202D14FF4A8
:101A3000803110E0A84202D14FF480310BE0B04277
:101A400002D14FF4803106E0B84202D14FF4803128
:101A500001E04FF480010CEA010CD1E0E649884234
:101A600044D9E649D1F800C0E549884201D1414650
:101A700039E0E449884201D1414634E0E2498842F4
:101A800001D141462FE0E149884201D141462AE097
:101A9000D449884201D1402125E0D349884201D16F
:101AA000402120E0D149884201D140211BE0D049AA
:101AB000884201D1402116E0CE49884202D14FF43C
:101AC000803110E0A84202D14FF480310BE0B042E7
:101AD00002D14FF4803106E0B84202D14FF4803198
:101AE00001E04FF480010CEA010C89E0C84988420A
:101AF00043D9DBF804C0C249884201D1414639E0EC
:101B0000C049884201D1414634E0BF49884201D1F1
:101B100041462FE0BD49884201D141462AE0B14902
:101B2000884201D1402125E0AF49884201D14021BE
:101B300020E0AE49884201D140211BE0AC498842F7
:101B400001D1402116E0AB49884202D14FF48031E7
:101B500010E0A84202D14FF480310BE0B04202D134
:101B60004FF4803106E0B84202D14FF4803101E0F9
:101B70004FF480010CEA010C42E0DBF800C0A04900
:101B8000884201D1414639E09E49884201D141460F
:101B900034E09D49884201D141462FE09B4988426B
:101BA00001D141462AE08F49884201D1402125E0F8
:101BB0008D49884201D1402120E08C49884201D1E1
:101BC00040211BE08A49884201D1402116E0894921
:101BD000884202D14FF4803110E0A84202D14FF484
:101BE00080310BE0B04202D14FF4803106E0B842C0
:101BF00002D14FF4803101E04FF480010CEA010C76
:101C00008449884242D984490B687D49884201D180
:101C1000494639E07B49884201D1494634E07A4956
:101C2000884201D149462FE07849884201D149468E
:101C30002AE06C49884201D1811525E06A49884231
:101C400001D1811520E06949884201D181151BE04D
:101C50006749884201D1811516E06649884202D160
:101C60004FF4802110E0A84202D14FF480210BE014
:101C7000B04202D14FF4802106E0B84202D14FF4C5
:101C8000802101E04FF080711940E9E05A49884213
:101C900042D95A490B685A49884201D1494639E02C
:101CA0005849884201D1494634E05749884201D118
:101CB00049462FE05549884201D149462AE0494921
:101CC000884201D1811525E04749884201D181151B
:101CD00020E04649884201D181151BE044498842F1
:101CE00001D1811516E04349884202D14FF4802189
:101CF00010E0A84202D14FF480210BE0B04202D1A3
:101D00004FF4802106E0B84202D14FF4802101E077
:101D10004FF080711940A3E03D49884242D9DBF879
:101D200004303749884201D1494639E03549884273
:101D300001D1494634E03449884201D149462FE077
:101D40003249884201D149462AE02649884201D1D8
:101D5000811525E02449884201D1811520E02349DD
:101D6000884201D181151BE02149884201D18115AA
:101D700016E02049884202D14FF4802110E0A842A9
:101D800002D14FF480210BE0B04202D14FF4802108
:101D900006E0B84202D14FF4802101E04FF080719B
:101DA00019405DE0DBF800301549884201D1494611
:101DB00055E01449884201D1494650E01249884211
:101DC00001D149464BE01149884201D1494646E0DC
:101DD0000449884201D1811541E0034988421DD15F
:101DE00081153CE02860024028640240886002407F
:101DF0008864024040600240B860024000640240D3
:101E00001060024010640240706002407064024042
:101E1000586002405864024004640240F849884215
:101E200001D181151BE0F749884201D1811516E0E7
:101E3000F549884202D14FF4802110E0A84202D136
:101E40004FF480210BE0B04202D14FF4802106E034
:101E5000B84202D14FF4802101E04FF08071194067
:101E600042EA0C030B4371D07AB3E26C42F00102F8
:101E7000E264E64A2368934242D9E54A904201D19E
:101E800008203AE0E34A904201D1082035E0E24AD6
:101E9000904201D1082030E0E04A904201D1082070
:101EA0002BE0DF4A904201D1401526E0DD4A904206
:101EB00001D1401521E0D24A904201D140151CE0E9
:101EC000D04A904202D1401517E0E5E0CE4A904258
:101ED00002D14FF4002010E0A84202D14FF40020BC
:101EE0000BE0B04202D14FF4002006E0B84202D12C
:101EF0004FF4002001E04FF00070CB4A1060CBE0BF
:101F0000CA4A904242D9C24A904201D108203AE0DE
:101F1000C04A904201D1082035E0BF4A904201D129
:101F2000082030E0BD4A904201D108202BE0BC4A95
:101F3000904201D1401526E0BA4A904201D14015A5
:101F400021E0AF4A904202D140151CE0DEE2AD4AEA
:101F5000904201D1401516E0AB4A904202D14FF4B5
:101F6000002010E0A84202D14FF400200BE0B04264
:101F700002D14FF4002006E0B84202D14FF4002015
:101F800001E04FF00070AA4A106085E0A94A904233
:101F900041D99F4A904201D1082039E09D4A9042A0
:101FA00001D1082034E09C4A904201D108202FE062
:101FB0009A4A904201D108202AE0994A904201D1E0
:101FC000401525E0974A904201D1401520E08C4A07
:101FD000904201D140151BE08A4A904201D1401540
:101FE00016E0894A904202D14FF4002010E0A84246
:101FF00002D14FF400200BE0B04202D14FF4002098
:1020000006E0B84202D14FF4002001E04FF000702A
:10201000CBF80C0040E07E4A904201D1082039E024
:102020007C4A904201D1082034E07B4A904201D1A1
:1020300008202FE0794A904201D108202AE0784A0E
:10204000904201D1401525E0764A904201D14015D9
:1020500020E06B4A904201D140151BE0694A904252
:1020600001D1401516E0684A904202D14FF4002099
:1020700010E0A84202D14FF400200BE0B04202D1A0
:102080004FF4002006E0B84202D14FF4002001E0F6
:102090004FF00070CBF80800BCF1000F45D0E06CA9
:1020A00040F00200E064594A206890423ED9584A04
:1020B000904237D0574A904234D0574A904231D05C
:1020C000564A90422ED0564A904202D14FF04008D4
:1020D00028E0544A904202D14FF0400822E0484A9A
:1020E000904202D14FF040081CE0464A904202D193
:1020F0004FF0400816E0444A904202D14FF4803835
:1021000010E0A84202D14FF480380BE0B04202D177
:102110004FF4803806E0B84202D14FF4803801E035
:102120004FF480084048C0F80080DCE03F4A90420D
:102130003ED9374A904237D0364A904234D0364A58
:10214000904231D0354A90422ED0354A904202D149
:102150004FF0400828E0334A904202D14FF0400847
:1021600022E0274A904202D14FF040081CE0254A65
:10217000904202D14FF0400816E0234A904202D12B
:102180004FF4803810E0A84202D14FF480380BE0C1
:10219000B04202D14FF4803806E0B84202D14FF489
:1021A000803801E04FF480082148C0F800809AE0B0
:1021B000204A90425AD9164A904254D0154A904229
:1021C00051D0154A90424ED0144A90424BD0144AF6
:1021D000904202D14FF0400845E0124A904202D1AD
:1021E0004FF040083FE0064A904202D14FF04008CD
:1021F00039E0044A90421FD14FF0400833E000001C
:102200008860024088640240406002405864024096
:10221000106002401064024070600240706402402E
:1022200028600240286402400C640240B86002400A
:102230000864024058600240F94A904202D14FF4CB
:10224000803810E0A84202D14FF480380BE0B04251
:1022500002D14FF4803806E0B84202D14FF4803802
:1022600001E04FF48008CBF80C803CE0ED4A90424E
:1022700037D0ED4A904234D0EC4A904231D0EC4A0B
:1022800090422ED0EB4A904202D14FF0400828E015
:10229000E94A904202D14FF0400822E0E74A9042DA
:1022A00002D14FF040081CE0E54A904202D14FF0C5
:1022B000400816E0DA4A904202D14FF4803810E02C
:1022C000A84202D14FF480380BE0B04202D14FF463
:1022D000803806E0B84202D14FF4803801E04FF474
:1022E0008008CBF8088089B3E06C40F00400E0641B
:1022F000D449206888423FD9CA49884238D0CA495F
:10230000884235D0C949884232D0C94988422FD045
:10231000C849884202D14FF4807929E0C6498842F1
:1023200002D14FF4807923E0C449884202D14FF4AE
:1023300080791DE0C249884202D14FF4807917E0CC
:10234000B749884203D14FF4802911E0D4E0A84274
:1023500002D14FF480290BE0B04202D14FF4802922
:1023600006E0B84202D14FF4802901E04FF08079B5
:10237000B548C0F80090BFE0B44988423ED9A949A9
:10238000884237D0A849884234D0A849884231D001
:10239000A74988422ED0A749884202D14FF48079BC
:1023A00028E0A549884202D14FF4807922E0A34970
:1023B000884202D14FF480791CE0A149884202D1C1
:1023C0004FF4807916E09649884202D14FF4802973
:1023D00010E0A84202D14FF480290BE0B04202D1B4
:1023E0004FF4802906E0B84202D14FF4802901E081
:1023F0004FF080799648C0F800907DE0954988427A
:102400003DD98849884237D08749884234D08749A6
:10241000884231D0864988422ED08649884202D1EE
:102420004FF4807928E08449884202D14FF48079C2
:1024300022E08249884202D14FF480791CE0804931
:10244000884202D14FF4807916E07549884202D162
:102450004FF4802910E0A84202D14FF480290BE00C
:10246000B04202D14FF4802906E0B84202D14FF4C5
:10247000802901E04FF08079CBF80C903CE069496D
:10248000884237D06849884234D06849884231D080
:10249000674988422ED06749884202D14FF480793B
:1024A00028E06549884202D14FF4807922E06349EF
:1024B000884202D14FF480791CE06149884202D100
:1024C0004FF4807916E05649884202D14FF48029B2
:1024D00010E0A84202D14FF480290BE0B04202D1B3
:1024E0004FF4802906E0B84202D14FF4802901E080
:1024F0004FF08079CBF80890042084F83500002054
:1025000084F8340005B00120BDE8F08F0498B0F1E4
:10251000FF3F16D0049830B1FEF751F80199411AE7
:10252000049881420DD9E06C40F02000E064032063
:1025300084F83500002084F8340005B00320BDE89D
:10254000F08F40492068884204D94348006800EA77
:102550000A0013E03D49884204D94048006800EA77
:102560000A000BE03B49884204D9DBF8040000EA8A
:102570000A0003E0DBF8000000EA0A0000283FF44C
:10258000EBA8039870B12068016811F4802F4FF018
:10259000310144D02B4A904271D9224A90426FD1E6
:1025A0001020F1E32068016811F4802F4FF0110131
:1025B00067D0244A904265D91A4B984201D1102025
:1025C0005AE0194B984201D1102055E0174B984220
:1025D00001D1102050E0164B984201D110204BE061
:1025E000144B984201D1001546E0134B984201D19B
:1025F000001541E0114B984201D100153CE0104B11
:10260000984201D1001537E0054B984202D14FF4B2
:10261000801031E0A84223D14FF480102CE0EFE38A
:10262000406002401060024010640240706002404E
:1026300070640240286002402864024088600240C2
:1026400088640240586402400C640240B860024052
:102650000864024058600240046402400064024082
:10266000B04202D14FF4801006E0B84202D14FF4DC
:10267000801001E04FF08060F84B1860CDE0EEE391
:10268000EEE305E2F64B984241D9F64B984201D170
:10269000102039E0F44B984201D1102034E0F34B84
:1026A000984201D110202FE0F14B984201D1102027
:1026B0002AE0F04B984201D1001525E0EE4B9842FC
:1026C00001D1001520E0ED4B984201D100151BE02F
:1026D000EB4B984201D1001516E0EA4B984202D12B
:1026E0004FF4801010E0A84202D14FF480100BE0AC
:1026F000B04202D14FF4801006E0B84202D14FF44C
:10270000801001E04FF08060DF4B186085E0DF4B08
:10271000984241D9D34B984201D1102039E0D24B95
:10272000984201D1102034E0D04B984201D11020C2
:102730002FE0CF4B984201D110202AE0CD4B984298
:1027400001D1001525E0CC4B984201D1001520E0C5
:10275000CA4B984201D100151BE0C94B984201D1E8
:10276000001516E0C74B984202D14FF4801010E0DC
:10277000A84202D14FF480100BE0B04202D14FF4D6
:10278000801006E0B84202D14FF4801001E04FF013
:102790008060CBF80C0040E0B24B984201D1102091
:1027A00039E0B14B984201D1102034E0AF4B984250
:1027B00001D110202FE0AE4B984201D110202AE029
:1027C000AC4B984201D1001525E0AB4B984201D1AA
:1027D000001520E0A94B984201D100151BE0A84B41
:1027E000984201D1001516E0A64B984202D14FF451
:1027F000801010E0A84202D14FF480100BE0B042EC
:1028000002D14FF4801006E0B84202D14FF480109C
:1028100001E04FF08060CBF808002068904241D979
:10282000904A904201D1202039E08F4A904201D154
:10283000202034E08D4A904201D120202FE08C4AA4
:10284000904201D120202AE08A4A904201D1C0144E
:1028500025E0894A904201D1C01420E0874A904285
:1028600001D1C0141BE0864A904201D1C01416E089
:10287000844A904202D14FF4001010E0A84202D1E5
:102880004FF400100BE0B04202D14FF4001006E00C
:10289000B84202D14FF4001001E04FF000606F4ADF
:1028A0001060CAE06E4A904241D96E4A904201D10E
:1028B000202039E06C4A904201D1202034E06B4A5C
:1028C000904201D120202FE0694A904201D120207E
:1028D0002AE0684A904201D1C01425E0664A90423D
:1028E00001D1C01420E0654A904201D1C0141BE020
:1028F000634A904201D1C01416E0624A904202D16C
:102900004FF4001010E0A84202D14FF400100BE089
:10291000B04202D14FF4001006E0B84202D14FF4A9
:10292000001001E04FF00060574A106085E0574A00
:10293000904241D94B4A904201D1202039E04A4A85
:10294000904201D1202034E0484A904201D1202019
:102950002FE0474A904201D120202AE0454A904288
:1029600001D1C01425E0444A904201D1C01420E0B6
:10297000424A904201D1C0141BE0414A904201D129
:10298000C01416E03F4A904202D14FF4001010E00C
:10299000A84202D14FF400100BE0B04202D14FF434
:1029A000001006E0B84202D14FF4001001E04FF0F1
:1029B0000060CBF80C0040E02A4A904201D1202070
:1029C00039E0294A904201D1202034E0274A904240
:1029D00001D120202FE0264A904201D120202AE078
:1029E000244A904201D1C01425E0234A904201D1EB
:1029F000C01420E0214A904201D1C0141BE0204ABB
:102A0000904201D1C01416E01E4A904202D14FF408
:102A1000001010E0A84202D14FF400100BE0B042C9
:102A200002D14FF4001006E0B84202D14FF400107A
:102A300001E04FF00060CBF808002068026812F453
:102A4000002F07D0006810F4002F6ED0212084F8EA
:102A5000350061E284F835105EE200000C6402404B
:102A6000B860024010600240106402407060024092
:102A7000706402402860024028640240886002407E
:102A8000886402404060024008640240586002408E
:102A9000F94A904241D9F94B984201D1102039E0CE
:102AA000F74B984201D1102034E0F64B984201D107
:102AB00010202FE0F44B984201D110202AE0F34B74
:102AC000984201D1001525E0F14B984201D1001543
:102AD00020E0F04B984201D100151BE0EE4B9842EC
:102AE00001D1001516E0ED4B984202D14FF4801051
:102AF00010E0A84202D14FF480100BE0B04202D1A6
:102B00004FF4801006E0B84202D14FF4801001E08B
:102B10004FF08060E24B1860CBE0E24B984242D924
:102B2000D64B984202D110203AE0F5E1D44B9842BE
:102B300001D1102034E0D34B984201D110202FE076
:102B4000D14B984201D110202AE0D04B984201D1BC
:102B5000001525E0CE4B984201D1001520E0CD4B69
:102B6000984201D100151BE0CB4B984201D10015D2
:102B700016E0CA4B984202D14FF4801010E0A842F0
:102B800002D14FF480100BE0B04202D14FF480101C
:102B900006E0B84202D14FF4801001E04FF08060AF
:102BA000C14B186085E0C14B984241D9B34B984264
:102BB00001D1102039E0B24B984201D1102034E00D
:102BC000B04B984201D110202FE0AF4B984201D179
:102BD00010202AE0AD4B984201D1001525E0AC4B06
:102BE000984201D1001520E0AA4B984201D100156E
:102BF0001BE0A94B984201D1001516E0A74B984263
:102C000002D14FF4801010E0A84202D14FF480109E
:102C10000BE0B04202D14FF4801006E0B84202D17E
:102C20004FF4801001E04FF08060CBF80C0040E0E2
:102C3000924B984201D1102039E0914B984201D13A
:102C4000102034E08F4B984201D110202FE08E4BA2
:102C5000984201D110202AE08C4B984201D10015F6
:102C600025E08B4B984201D1001520E0894B98421A
:102C700001D100151BE0884B984201D1001516E0E8
:102C8000864B984202D14FF4801010E0A84202D146
:102C90004FF480100BE0B04202D14FF4801006E0F8
:102CA000B84202D14FF4801001E04FF08060CBF8C1
:102CB00008002068904241D9704A904201D12020FA
:102CC00039E06F4A904201D1202034E06D4A9042B1
:102CD00001D120202FE06C4A904201D120202AE02F
:102CE0006A4A904201D1C01425E0694A904201D15C
:102CF000C01420E0674A904201D1C0141BE0664A2C
:102D0000904201D1C01416E0644A904202D14FF4BF
:102D1000001010E0A84202D14FF400100BE0B042C6
:102D200002D14FF4001006E0B84202D14FF4001077
:102D300001E04FF000605A4A1060EBE0594A9042BF
:102D400042D94E4A904201D120203AE04C4A90426A
:102D500001D1202035E04B4A904201D1202030E0C3
:102D6000494A904201D120202BE0484A904201D1AB
:102D7000C01426E0464A904201D1C01421E0454AE1
:102D8000904202D1C0141CE004E1434A904201D1B8
:102D9000C01416E0414A904202D14FF4001010E0F6
:102DA000A84202D14FF400100BE0B04202D14FF420
:102DB000001006E0B84202D14FF4001001E04FF0DD
:102DC0000060394A1060A5E0384A904242D92B4A47
:102DD000904201D120203AE0294A904201D120209E
:102DE00035E0284A904201D1202030E0264A904226
:102DF00001D120202BE0254A904202D1C01426E0C8
:102E0000A6E1234A904201D1C01420E0214A904219
:102E100001D1C0141BE0204A904201D1C01416E039
:102E20001E4A904202D14FF4001010E0A84202D195
:102E30004FF400100BE0B04202D14FF4001006E056
:102E4000B84202D14FF4001001E04FF00060CBF81F
:102E50000C005FE0094A904203D1202058E09CE03A
:102E60005EE0074A904201D1202051E0054A90429D
:102E70001ED120204CE00000586402401060024047
:102E8000106402407060024070640240286002409A
:102E9000286402408860024088640240406002402A
:102EA0000C640240B860024008640240586002406E
:102EB000F84A904201D120202AE0F74A904201D1FD
:102EC000C01425E0F54A904201D1C01420E0F44A34
:102ED000904201D1C0141BE0F24A904201D1C014CB
:102EE00016E0F14A904202D14FF4001010E0A842DF
:102EF00002D14FF400100BE0B04202D14FF40010A9
:102F000006E0B84202D14FF4001001E04FF000603B
:102F1000CBF8080084F83510002084F8340046E22D
:102F2000E24A904201D1102034E0E14A904201D1BE
:102F300010202FE0D74A904201D110202AE0D64A33
:102F4000904201D1001525E0D44A904201D10015EC
:102F500020E0D34A904201D100151BE0D14A9042B3
:102F600001D1001516E0D04A904202D14FF48010F2
:102F700010E0A84202D14FF480100BE0B04202D121
:102F80004FF4801006E0B84202D14FF4801001E007
:102F90004FF08060C74A1060CAE0C74A904241D9EA
:102FA000C64A904201D1102039E0C04A904201D176
:102FB000102034E0BE4A904201D110202FE0B54AE3
:102FC000904201D110202AE0B34A904201D100156D
:102FD00025E0B24A904201D1001520E0B04A90426B
:102FE00001D100151BE0AF4A904201D1001516E057
:102FF000AD4A904202D14FF4801010E0A84202D1B5
:103000004FF480100BE0B04202D14FF4801006E084
:10301000B84202D14FF4801001E04FF08060A84A1E
:10302000106085E0A74A904241D9A44A904201D15C
:10303000102039E09D4A904201D1102034E09C4A92
:10304000904201D110202FE0924A904201D11020ED
:103050002AE0914A904201D1001525E08F4A904222
:1030600001D1001520E08E4A904201D100151BE0ED
:103070008C4A904201D1001516E08B4A904202D151
:103080004FF4801010E0A84202D14FF480100BE002
:10309000B04202D14FF4801006E0B84202D14FF4A2
:1030A000801001E04FF08060CBF80C0040E0834AD4
:1030B000904201D1102039E07C4A904201D1102089
:1030C00034E07B4A904201D110202FE0714A9042B7
:1030D00001D110202AE0704A904201D1001525E06C
:1030E0006E4A904201D1001520E06D4A904201D114
:1030F00000151BE06B4A904201D1001516E06A4AA8
:10310000904202D14FF4801010E0A84202D14FF457
:1031100080100BE0B04202D14FF4801006E0B842BC
:1031200002D14FF4801001E04FF08060CBF808002E
:103130002068026812F4002F07D0006810F4002FF6
:1031400071D0412084F8350031E184F835102EE14A
:103150005D4A904241D9594A904201D1102039E04C
:10316000524A904201D1102034E0514A904201D19C
:1031700010202FE0474A904201D110202AE0464A11
:10318000904201D1001525E0444A904201D100153A
:1031900020E0434A904201D100151BE0414A904291
:1031A00001D1001516E0404A904202D14FF4801040
:1031B00010E0A84202D14FF480100BE0B04202D1DF
:1031C0004FF4801006E0B84202D14FF4801001E0C5
:1031D0004FF08060374A1060E7E0374A904242D9AA
:1031E000364A904201D110203AE0304A904201D153
:1031F000102035E02E4A904201D1102030E0254ABF
:10320000904201D110202BE0234A904201D10015B9
:1032100026E0224A904201D1001521E0204A904246
:1032200002D100151CE0C2E01E4A904201D10015F7
:1032300016E01D4A904202D14FF4801010E0A842DF
:1032400002D14FF480100BE0B04202D14FF4801055
:1032500006E0B84202D14FF4801001E04FF08060E8
:10326000174A1060A1E0174A90425DD9134A904274
:1032700001D1102055E00D4A904201D1102050E0BC
:103280000B4A904201D110204BE0024A90421DD1DE
:10329000102046E07064024028600240286402402A
:1032A000886002408864024040600240106402402E
:1032B000706002400C640240B8600240106002403E
:1032C000086402405860024058640240F64A904246
:1032D00001D1001525E0F54A904201D1001520E00A
:1032E000F34A904201D100151BE0F24A904201D10D
:1032F000001516E0F04A904202D14FF4801010E021
:10330000A84202D14FF480100BE0B04202D14FF43A
:10331000801006E0B84202D14FF4801001E04FF077
:103320008060CBF80C0040E0E44A904201D11020CC
:1033300039E0E34A904201D1102034E0E14A904262
:1033400001D110202FE0E04A904201D110202AE064
:10335000D54A904201D1001525E0D44A904201D1CE
:10336000001520E0D24A904201D100151BE0D14A5D
:10337000904201D1001516E0CF4A904202D14FF49D
:10338000801010E0A84202D14FF480100BE0B04250
:1033900002D14FF4801006E0B84202D14FF4801001
:1033A00001E04FF08060CBF8080084F8351005B0DC
:1033B0000020BDE8F08F2DE9F05F0446C349206886
:1033C000BE4DBF4EBF4FDFF80083DFF8DC92DFF861
:1033D000DCA2DFF8DCB2884241D9BD490A68A842C4
:1033E00001D1082139E0B04201D1082135E0B842CD
:1033F00001D1082131E0404501D108212DE04845A7
:1034000002D14FF4007128E0504502D14FF4007111
:1034100023E0584502D14FF400711EE0A5498842CF
:1034200001D1411519E0A449884202D14FF400218D
:1034300013E0A849884202D14FF400210DE0A649CB
:10344000884202D14FF4002107E0A449884202D10A
:103450004FF4002101E04FF000711140CAE0A04993
:10346000884241D99F490A68A84201D1082139E020
:10347000B04201D1082135E0B84201D1082131E044
:10348000404501D108212DE0484502D14FF400719B
:1034900028E0504502D14FF4007123E0584502D195
:1034A0004FF400711EE08349884201D1411519E0B3
:1034B0008149884202D14FF4002113E085498842B6
:1034C00002D14FF400210DE08349884202D14FF42C
:1034D000002107E08149884202D14FF4002101E038
:1034E0004FF00071114085E07F49884241D97F4902
:1034F0004A68A84201D1082139E0B04201D108212F
:1035000035E0B84201D1082131E0404501D1082120
:103510002DE0484502D14FF4007128E0504502D11A
:103520004FF4007123E0584502D14FF400711EE0C2
:103530006049884201D1411519E05F49884202D1B2
:103540004FF4002113E06349884202D14FF4002177
:103550000DE06149884202D14FF4002107E05F4944
:10356000884202D14FF4002101E04FF00071114078
:1035700040E05E490A68A84201D1082139E0B04222
:1035800001D1082135E0B84201D1082131E04045A0
:1035900001D108212DE0484502D14FF4007128E007
:1035A000504502D14FF4007123E0584502D14FF449
:1035B00000711EE03F49884201D1411519E03E49A2
:1035C000884202D14FF4002113E04249884202D1DF
:1035D0004FF400210DE04049884202D14FF4002110
:1035E00007E03E49884202D14FF4002101E04FF04C
:1035F0000071114000297DD0016811F0040F79D0CD
:10360000016821F00401016030492068884240D9F6
:10361000A84201D1082039E0B04201D1082035E0AC
:10362000B84201D1082031E0404501D108202DE009
:10363000484502D14FF4007028E0504502D14FF4C4
:10364000007023E0584502D14FF400701EE0194984
:10365000884201D1401519E01749884202D14FF440
:10366000002013E01B49884202D14FF400200DE0F6
:103670001949884202D14FF4002007E017498842D7
:1036800002D14FF4002001E04FF0007018490860AB
:10369000EEE01349884267D9A84201D1082060E0D2
:1036A000B04228D108205CE0286002402864024033
:1036B000886002408864024040600240106002401E
:1036C000106402407060024070640240586402401E
:1036D0000464024040640240A0600240A0640240D2
:1036E000B86002400064024058600240006002403E
:1036F0000C640240CAE0B84201D1082031E04045E4
:1037000001D108202DE0484502D14FF4007028E097
:10371000504502D14FF4007023E0584502D14FF4D8
:1037200000701EE0F649884201D1401519E0F549C4
:10373000884202D14FF4002013E0F349884202D1BD
:103740004FF400200DE0F149884202D14FF40020EF
:1037500007E0EF49884202D14FF4002001E04FF02A
:103760000070EC49086083E0EB49884240D9A842E8
:1037700001D1082039E0B04201D1082035E0B8423B
:1037800001D1082031E0404501D108202DE0484515
:1037900002D14FF4007028E0504502D14FF4007080
:1037A00023E0584502D14FF400701EE0D44988420E
:1037B00001D1401519E0D349884202D14FF40020CD
:1037C00013E0D149884202D14FF400200DE0CF49E7
:1037D000884202D14FF4002007E0CD49884202D14F
:1037E0004FF4002001E04FF00070CC49C8603FE08A
:1037F000A84201D1082039E0B04201D1082035E0CB
:10380000B84201D1082031E0404501D108202DE027
:10381000484502D14FF4007028E0504502D14FF4E2
:10382000007023E0584502D14FF400701EE0B44907
:10383000884201D1401519E0B249884202D14FF4C3
:10384000002013E0B049884202D14FF400200DE07F
:10385000AE49884202D14FF4002007E0AC498842CB
:1038600002D14FF4002001E04FF00070AB498860B6
:10387000E06C40F00100E064042084F83500002092
:1038800084F83400A16C09B120468847A44A206816
:10389000A44990423ED9A44A1368A84201D10A46DD
:1038A00036E0B04201D10A4632E0B84201D10A46C0
:1038B0002EE0404501D10A462AE0484501D1402288
:1038C00026E0504501D1402222E0584501D1402256
:1038D0001EE08B4A904201D1402219E0894A904271
:1038E00002D14FF4803213E0874A904202D14FF464
:1038F00080320DE0854A904202D14FF4803207E0D9
:10390000834A904202D14FF4803201E04FF48002AA
:103910001A40C1E0854A90423ED9854A1368A842C0
:1039200001D10A4636E0B04201D10A4632E0B8423F
:1039300001D10A462EE0404501D10A462AE0484519
:1039400001D1402226E0504501D1402222E05845D5
:1039500001D140221EE06A4A904201D1402219E082
:10396000684A904202D14FF4803213E0664A904296
:1039700002D14FF480320DE0644A904202D14FF4FC
:10398000803207E0624A904202D14FF4803201E077
:103990004FF480021A407FE05F4A90423ED95F4A6E
:1039A0005368A84201D10A4636E0B04201D10A4626
:1039B00032E0B84201D10A462EE0404501D10A4624
:1039C0002AE0484501D1402226E0504501D140225D
:1039D00022E0584501D140221EE0494A904201D1DF
:1039E000402219E0474A904202D14FF4803213E05E
:1039F000454A904202D14FF480320DE0434A904252
:103A000002D14FF4803207E0414A904202D14FF494
:103A1000803201E04FF480021A403DE03F4A1368D3
:103A2000A84201D10A4636E0B04201D10A4632E04E
:103A3000B84201D10A462EE0404501D10A462AE0AB
:103A4000484501D1402226E0504501D1402222E0E4
:103A5000584501D140221EE0294A904201D140221E
:103A600019E0284A904202D14FF4803213E0264AEE
:103A7000904202D14FF480320DE0244A904202D1AC
:103A80004FF4803207E0224A904202D14FF4803254
:103A900001E04FF480021A4082B3426912F0800FB5
:103AA0002CD0426922F0800242611D4A2068904277
:103AB00051D9A8424CD0B0424AD0B84248D0404533
:103AC00046D0484501D1402142E0504501D1402136
:103AD0003EE0584501D140213AE00949884201D1F0
:103AE000402135E00749884202D14FF480312FE070
:103AF000054988421ED14FF4803129E0E0E0000002
:103B0000886402404060024040640240A06002407D
:103B1000A064024008640240586002400060024015
:103B2000586402400100800004640240B860024012
:103B300000640240F849884202D14FF4803107E026
:103B4000F649884202D14FF4803101E04FF4800100
:103B5000F3480160A6E0F34A904235D9A84230D03C
:103B6000B0422ED0B8422CD040452AD0484501D191
:103B7000402126E0504501D1402122E0584501D1A5
:103B800040211EE0E849884201D1402119E0E7497F
:103B9000884202D14FF4803113E0E549884202D1D6
:103BA0004FF480310DE0DC49884202D14FF480317E
:103BB00007E0DA49884202D14FF4803101E04FF446
:103BC0008001DC4801606DE0DB4A904235D9A842B3
:103BD00030D0B0422ED0B8422CD040452AD04845F3
:103BE00001D1402126E0504501D1402122E0584535
:103BF00001D140211EE0CC49884201D1402119E089
:103C0000CA49884202D14FF4803113E0C849884242
:103C100002D14FF480310DE0BF49884202D14FF408
:103C2000803107E0BD49884202D14FF4803101E084
:103C30004FF48001C148C16034E0A84230D0B042A6
:103C40002ED0B8422CD040452AD0484501D1402141
:103C500026E0504501D1402122E0584501D14021C4
:103C60001EE0B149884201D1402119E0AF498842A4
:103C700002D14FF4803113E0AD49884202D14FF4B4
:103C800080310DE0A449884202D14FF4803107E031
:103C9000A249884202D14FF4803101E04FF4800103
:103CA000A6488160E06C40F00200E064042084F8E3
:103CB0003500002084F83400A16C09B12046884703
:103CC0009F4A20689F49904241D99F4A1368A84261
:103CD00001D10A4639E0B04201D10A4635E0B84286
:103CE00001D10A4631E0404501D10A462DE0484560
:103CF00002D14FF4807228E0504502D14FF4807217
:103D000023E0584502D14FF480721EE0864A90426B
:103D100001D1821519E0854A904202D14FF48022E8
:103D200013E0834A904202D14FF480220DE07A4A98
:103D3000904202D14FF4802207E0784A904202D1AB
:103D40004FF4802201E04FF080721A40CAE0754AB9
:103D5000904241D97D4A1368A84201D10A4639E010
:103D6000B04201D10A4635E0B84201D10A4631E0FD
:103D7000404501D10A462DE0484502D14FF48072FA
:103D800028E0504502D14FF4807223E0584502D11B
:103D90004FF480721EE0644A904201D1821519E00E
:103DA000624A904202D14FF4802213E0604A90426E
:103DB00002D14FF480220DE0574A904202D14FF4D5
:103DC000802207E0554A904202D14FF4802201E060
:103DD0004FF080721A4085E0574A904241D9574AC5
:103DE0005368A84201D10A4639E0B04201D10A46DF
:103DF00035E0B84201D10A4631E0404501D10A46DA
:103E00002DE0484502D14FF4807228E0504502D1A0
:103E10004FF4807223E0584502D14FF480721EE0C7
:103E2000414A904201D1821519E0404A904202D1A4
:103E30004FF4802213E03E4A904202D14FF4802298
:103E40000DE0354A904202D14FF4802207E0334A18
:103E5000904202D14FF4802201E04FF080721A406C
:103E600040E0364A1368A84201D10A4639E0B04220
:103E700001D10A4635E0B84201D10A4631E0404559
:103E800001D10A462DE0484502D14FF4807228E066
:103E9000504502D14FF4807223E0584502D14FF4CF
:103EA00080721EE0204A904201D1821519E01F4A1B
:103EB000904202D14FF4802213E01D4A904202D179
:103EC0004FF480220DE0144A904202D14FF4802238
:103ED00007E0124A904202D14FF4802201E04FF0F5
:103EE00080721A40BAB1026812F0020F13D0026851
:103EF00022F002020260124A2068904254D9A8427D
:103F00004FD0B0424DD0B8424BD0404549D0484543
:103F10001ED1911545E003E1A0600240A06402407B
:103F20000C640240B8600240886402404060024075
:103F30004064024008640240586002400060024051
:103F4000586402400400800004640240006402409F
:103F5000504502D14FF4807123E0584502D14FF40F
:103F600080711EE0FE49884201D1811519E0FD49AA
:103F7000884202D14FF4802113E0FB49884202D1EC
:103F80004FF480210DE0F949884202D14FF480219D
:103F900007E0F749884202D14FF4802101E04FF059
:103FA0008071F4480160ADE0F34A904237D9A842ED
:103FB00032D0B04230D0B8422ED040452CD0484507
:103FC00001D1911528E0504502D14FF4807123E0D2
:103FD000584502D14FF480711EE0E149884201D179
:103FE000811519E0DF49884202D14FF4802113E0A6
:103FF000DD49884202D14FF480210DE0DB4988423F
:1040000002D14FF4802107E0D949884202D14FF410
:10401000802101E04FF08071D848016072E0D84AF9
:10402000904237D9A84232D0B04230D0B8422ED0D8
:1040300040452CD0484501D1911528E0504502D18A
:104040004FF4807123E0584502D14FF480711EE097
:10405000C349884201D1811519E0C249884202D181
:104060004FF4802113E0C049884202D14FF48021EF
:104070000DE0BE49884202D14FF4802107E0BC49DF
:10408000884202D14FF4802101E04FF08071BD4899
:10409000C16037E0A84233D0B04231D0B8422FD00F
:1040A00040452DD0484502D14FF4807128E050455D
:1040B00002D14FF4807123E0584502D14FF4807152
:1040C0001EE0A749884201D1811519E0A54988421F
:1040D00002D14FF4802113E0A349884202D14FF46A
:1040E00080210DE0A149884202D14FF4802107E0F0
:1040F0009F49884202D14FF4802101E04FF0807146
:10410000A0488160E06C40F00400E064042084F882
:104110003500002084F83400A16C09B1204688479E
:1041200099492068884241D998490A68A84201D132
:10413000102139E0B04201D1102135E0B84201D15F
:10414000102131E0404501D110212DE0484502D138
:104150004FF4806128E0504502D14FF4806123E0A4
:10416000584502D14FF480611EE07D49884201D15B
:10417000011519E07B49884202D14FF4801113E008
:104180007949884202D14FF480110DE07749884285
:1041900002D14FF4801107E07549884202D14FF4F3
:1041A000801101E04FF080611140CAE072498842FD
:1041B00041D977490A68A84201D1102139E0B042BB
:1041C00001D1102135E0B84201D1102131E0404544
:1041D00001D110212DE0484502D14FF4806128E043
:1041E000504502D14FF4806123E0584502D14FF48D
:1041F00080611EE05A49884201D1011519E05949F0
:10420000884202D14FF4801113E05749884202D10D
:104210004FF480110DE05549884202D14FF48011CE
:1042200007E05349884202D14FF4801101E04FF07A
:104230008061114085E05249884241D951494A681C
:10424000A84201D1102139E0B04201D1102135E05E
:10425000B84201D1102131E0404501D110212DE0BB
:10426000484502D14FF4806128E0504502D14FF417
:10427000806123E0584502D14FF480611EE0384947
:10428000884201D1011519E03649884202D14FF424
:10429000801113E03449884202D14FF480110DE0BF
:1042A0003249884202D14FF4801107E030498842F8
:1042B00002D14FF4801101E04FF08061114040E0E5
:1042C00030490A68A84201D1102139E0B04201D139
:1042D000102135E0B84201D1102131E0404501D133
:1042E00010212DE0484502D14FF4806128E050456F
:1042F00002D14FF4806123E0584502D14FF4806130
:104300001EE01749884201D1011519E0154988427C
:1043100002D14FF4801113E01349884202D14FF4C7
:1043200080110DE01149884202D14FF4801107E05D
:104330000F49884202D14FF4801101E04FF08061B3
:10434000114039B3016811F0080F23D0016811F44E
:10435000802F4FF031016ED00B4A90425CD91AE0A9
:10436000886402404060024040640240A060024015
:10437000A06402400C640240B8600240086402403D
:1043800058600240006002405864024004640240E9
:10439000006402404BE2A84201D1102039E0B04253
:1043A00001D1102035E0B84201D1102031E0404564
:1043B00001D110202DE0484502D14FF4806028E063
:1043C000504502D14FF4806023E0584502D14FF4AC
:1043D00080601EE0F74A904201D1001519E0F64ACC
:1043E000904202D14FF4801013E0F44A904202D17F
:1043F0004FF480100DE0F24A904202D14FF4801049
:1044000007E0F04A904202D14FF4801001E04FF0F3
:104410008060ED4A1060C8E0EC4A904241D9A84261
:1044200001D110203AE0B04201D1102036E0B8426C
:1044300002D1102032E0C8E0404501D110202DE02B
:10444000484502D14FF4806028E0504502D14FF436
:10445000806023E0584502D14FF480601EE0D54AC9
:10446000904201D1001519E0D34A904202D14FF495
:10447000801013E0D14A904202D14FF480100DE039
:10448000CF4A904202D14FF4801007E0CD4A9042CB
:1044900002D14FF4801001E04FF08060CC4A1060F0
:1044A00083E0CC4A904240D9A84201D1102039E0A3
:1044B000B04201D1102035E0B84201D1102031E0E6
:1044C000404501D110202DE0484502D14FF48060D5
:1044D00028E0504502D14FF4806023E0584502D1D6
:1044E0004FF480601EE0B34A904201D1001519E0FC
:1044F000B14A904202D14FF4801013E0AF4A90428B
:1045000002D14FF480100DE0AD4A904202D14FF439
:10451000801007E0AB4A904202D14FF4801001E0D6
:104520004FF08060AC4AD0603FE0A84201D110203B
:1045300039E0B04201D1102035E0B84201D110205D
:1045400031E0404501D110202DE0484502D14FF423
:10455000806028E0504502D14FF4806023E0584548
:1045600002D14FF480601EE0924A904201D10015C2
:1045700019E0914A904202D14FF4801013E08F4A23
:10458000904202D14FF480100DE08D4A904202D14A
:104590004FF4801007E08B4A904202D14FF4801014
:1045A00001E04FF080608C4A90602068026812F44D
:1045B000002F07D0006810F4002F70D0412084F83D
:1045C000350030E184F835102DE1026812F4807F67
:1045D00003D1026822F008020260804A20689042FB
:1045E00040D9A84201D1102039E0B04201D11020B9
:1045F00035E0B84201D1102031E0404501D1102012
:104600002DE0484502D14FF4806028E0504502D1AA
:104610004FF4806023E0584502D14FF480601EE0E3
:10462000644A904201D1001519E0634A904202D1D8
:104630004FF4801013E0614A904202D14FF4801091
:104640000DE05F4A904202D14FF4801007E05D4ACE
:10465000904202D14FF4801001E04FF080605A4A3E
:104660001060DEE0594A904241D9A84201D11020A1
:104670003AE0B04201D1102036E0B84201D110201A
:1046800032E0404501D110202EE0484502D14FF4E0
:10469000806029E0504503D14FF4806024E0C2E0FF
:1046A000584502D14FF480601EE0424A904201D149
:1046B000001519E0404A904202D14FF4801013E0F7
:1046C0003E4A904202D14FF480100DE03C4A9042A5
:1046D00002D14FF4801007E03A4A904202D14FF4E1
:1046E000801001E04FF08060394A106099E0394A4B
:1046F000904240D9A84201D1102039E0B04201D106
:10470000102035E0B84201D1102031E0404501D100
:1047100010202DE0484502D14FF4806028E050453C
:1047200002D14FF4806023E0584502D14FF48060FD
:104730001EE0204A904201D1001519E01E4A904225
:1047400002D14FF4801013E01C4A904202D14FF482
:1047500080100DE01A4A904202D14FF4801007E019
:10476000184A904202D14FF4801001E04FF080606F
:10477000194AD06055E0A84201D110204FE0B04264
:1047800001D110204BE0B84201D1102047E0404554
:1047900001D1102043E0484502D14FF480603EE053
:1047A000504502D14FF4806039E0584518D14FF49C
:1047B000806034E08864024040600240406402400F
:1047C000A0600240A06402400C640240B860024055
:1047D0000864024058600240006002405864024091
:1047E000F94A904201D1001519E0F84A904202D1ED
:1047F0004FF4801013E0F64A904202D14FF480103B
:104800000DE0F44A904202D14FF4801007E0F24AE2
:10481000904202D14FF4801001E04FF08060EF4AE7
:10482000906084F83510216C09B120468847EC4A25
:104830002068904241D9EB490B68A84201D1202160
:1048400039E0B04201D1202135E0B84201D1202128
:1048500031E0404501D120212DE0484502D14FF4FF
:10486000006128E0504502D14FF4006123E0584533
:1048700002D14FF400611EE0D349884201D1C11436
:1048800019E0D249884202D14FF4001113E0D04917
:10489000884202D14FF400110DE0CE49884202D186
:1048A0004FF4001107E0CC49884202D14FF40011C7
:1048B00001E04FF000611940CAE0CB49884241D97C
:1048C000CA490B68A84201D1202139E0B04201D188
:1048D000202135E0B84201D1202131E0404501D10D
:1048E00020212DE0484502D14FF4006128E05045D9
:1048F00002D14FF4006123E0584502D14FF400612A
:104900001EE0B149884201D1C11419E0AF49884283
:1049100002D14FF4001113E0AD49884202D14FF4A7
:1049200000110DE0AB49884202D14FF4001107E0BD
:10493000A949884202D14FF4001101E04FF0006113
:10494000194085E0AA49884241D9A4494B68A84248
:1049500001D1202139E0B04201D1202135E0B84217
:1049600001D1202131E0404501D120212DE04845F1
:1049700002D14FF4006128E0504502D14FF40061AC
:1049800023E0584502D14FF400611EE08E49884271
:1049900001D1C11419E08D49884202D14FF40011B0
:1049A00013E08B49884202D14FF400110DE0894990
:1049B000884202D14FF4001107E08749884202D1B2
:1049C0004FF4001101E04FF00061194040E08349CD
:1049D0000B68A84201D1202139E0B04201D1202149
:1049E00035E0B84201D1202131E0404501D12021FC
:1049F0002DE0484502D14FF4006128E0504502D136
:104A00004FF4006123E0584502D14FF400611EE0ED
:104A10006D49884201D1C11419E06C49884202D124
:104A20004FF4001113E06A49884202D14FF400119B
:104A30000DE06849884202D14FF4001107E0664951
:104A4000884202D14FF4001101E04FF0006119409B
:104A5000002900F06E82016811F0100F00F06982E9
:104A6000016811F4802F6FD0904240D9A84201D143
:104A7000202039E0B04201D1202035E0B84201D1F8
:104A8000202031E0404501D120202DE0484502D1D1
:104A90004FF4006028E0504502D14FF4006023E05D
:104AA000584502D14FF400601EE04749884201D1C9
:104AB000C01419E04549884202D14FF4001013E0B8
:104AC0004349884202D14FF400100DE04149884229
:104AD00002D14FF4001007E03F49884202D14FF461
:104AE000001001E04FF0006042490860E3E03E49F9
:104AF000884241D9A84201D120203AE0B04201D1F8
:104B0000202036E0B84201D1202032E0404501D1DA
:104B100020202EE0484502D14FF4006029E05045A6
:104B200002D14FF4006024E0584502D14FF40060F8
:104B30001FE02549884201D1C0141AE02349884268
:104B400003D14FF4001014E0CFE02149884202D194
:104B50004FF400100DE01F49884202D14FF40010BD
:104B600007E01D49884202D14FF4001001E04FF0E8
:104B70000060214908609EE01D4988425BD9A84237
:104B800001D1202054E0B04201D1202050E0B842B1
:104B900001D120204CE0404501D1202048E048458B
:104BA00002D14FF4006043E0504502D14FF4006061
:104BB0003EE0584502D14FF4006039E00249884296
:104BC0001CD1C01434E00000886402404060024000
:104BD00040640240A0600240A064024000600240C5
:104BE0005864024004640240B8600240006402401D
:104BF000586002400C64024008640240D049884278
:104C000002D14FF4001013E0CE49884202D14FF494
:104C100000100DE0CC49884202D14FF4001007E0AB
:104C2000CA49884202D14FF4001001E04FF0006001
:104C3000C749C8603FE0A84201D1202039E0B04216
:104C400001D1202035E0B84201D1202031E040459B
:104C500001D120202DE0484502D14FF4006028E02A
:104C6000504502D14FF4006023E0584502D14FF483
:104C700000601EE0B749884201D1C01419E0B04974
:104C8000884202D14FF4001013E0AE49884202D1AD
:104C90004FF400100DE0AC49884202D14FF40010EF
:104CA00007E0AA49884202D14FF4001001E04FF01A
:104CB0000060A74988602068016811F4002F0CD0BB
:104CC000006810F4002F00F03481E16B002900F03F
:104CD00030812046BDE8F05F0847616C002900F094
:104CE00028812046BDE8F05F0847016811F4807F05
:104CF00003D1016821F0100101602068904240D981
:104D0000A84201D1202039E0B04201D1202035E075
:104D1000B84201D1202031E0404501D120202DE0D2
:104D2000484502D14FF4006028E0504502D14FF4CD
:104D3000006023E0584502D14FF400601EE0854931
:104D4000884201D1C01419E07D49884202D14FF454
:104D5000001013E07B49884202D14FF400100DE0AF
:104D60007949884202D14FF4001007E07749884220
:104D700002D14FF4001001E04FF000607649086066
:104D8000C7E07649884240D9A84201D1202039E0C5
:104D9000B04201D1202035E0B84201D1202031E0DD
:104DA000404501D120202DE0484502D14FF400605C
:104DB00028E0504502D14FF4006023E0584502D16D
:104DC0004FF400601EE06349884201D1C01419E02D
:104DD0005B49884202D14FF4001013E059498842E0
:104DE00002D14FF400100DE05749884202D14FF430
:104DF000001007E05549884202D14FF4001001E04D
:104E00004FF000605649086083E05649884240D917
:104E1000A84201D1202039E0B04201D1202035E064
:104E2000B84201D1202031E0404501D120202DE0C1
:104E3000484502D14FF4006028E0504502D14FF4BC
:104E4000006023E0584502D14FF400601EE0414964
:104E5000884201D1C01419E03949884202D14FF487
:104E6000001013E03749884202D14FF400100DE0E2
:104E70003549884202D14FF4001007E03349884297
:104E800002D14FF4001001E04FF000603049C860DB
:104E90003FE0A84201D1202039E0B04201D12020DA
:104EA00035E0B84201D1202031E0404501D1202039
:104EB0002DE0484502D14FF4006028E0504502D172
:104EC0004FF4006023E0584502D14FF400601EE02B
:104ED0002049884201D1C01419E01949884202D101
:104EE0004FF4001013E01749884202D14FF400102C
:104EF0000DE01549884202D14FF4001007E0134934
:104F0000884202D14FF4001001E04FF000601049D8
:104F10008860E06CE064112084F83500002084F89B
:104F20003400E16B002900F004802046BDE8F05F0A
:104F30000847BDE8F09F90F835007047C06C704797
:104F40004060024040640240A0600240A064024011
:104F500000600240886402400C640240B860024075
:104F600008640240586002402DE9F84F0022DFF843
:104F7000A093DFF898834FF0010E0F2709F1040A80
:104F80000EFA02F50B682B40AB427CD1D1F804C07D
:104F9000BCF1020F02D0BCF1120F14D14FEAD20CB7
:104FA00000EB8C04266A4FEA427C4FEADC6C07FA7D
:104FB0000CFB26EA0B06D1F810B00BFA0CFC4CEAFD
:104FC000060CC4F820C006684FEA420C032404FA19
:104FD0000CF4A64391F804B00BF0030B0BFA0CFB96
:104FE0004BEA060606604E68012E05D0022E03D05D
:104FF000112E01D0122E11D18668A643D1F80CB023
:105000000BFA0CFB4BEA06068660466826EA0505A5
:105010000E79C6F30016964035434560C56825EA0B
:1050200004048D6805FA0CFC4CEA040CC0F80CC0B2
:10503000D1F804C01CF0805F72D0D8F800C04CF4E6
:10504000804CC8F800C0D8F800C00CF4804CCDF8F3
:1050500000C022F0030C0CF1804505F59835D5F819
:1050600008C89407240F07FA04F62CEA0606A0F1F4
:10507000804CBCF5003C59D0BCF5806C59D0BCF5D7
:10508000806C59D000E04BE0BCF5806C57D0BCF58B
:10509000806C57D0BCF5806C57D0BCF5806C57D075
:1050A000BCF5806C57D0BCF5806C57D04FF0090C24
:1050B0000CFA04FC4CEA060CC5F808C8954CD4F868
:1050C00000C02CEA030C4D6815F4803F01D04CEA77
:1050D000030CC4F800C0D9F800C02CEA030C4C68DB
:1050E00014F4003F01D04CEA030CC9F800C0DAF810
:1050F00000C02CEA030C4C6814F4801F01D04CEA69
:10510000030CCAF800C0844CD4F800C02CEA030C8D
:105110004D6815F4001F01D04CEA030CC4F800C020
:10512000521C102AFFF42CAFBDE8F88F4FF0000C92
:10513000BEE74FF0010CBBE74FF0020CB8E74FF0B1
:10514000030CB5E74FF0040CB2E74FF0050CAFE7E6
:105150004FF0060CACE74FF0070CA9E74FF0080C36
:10516000A6E72DE9F04F0022DFF8A8914FF0030EDB
:1051700009F1040A4FF00F080AF1040B012303FAA6
:1051800002F401EA0403A3426FD105684FEA420C1E
:105190000EFA0CFC25EA0C050560D50800EB850528
:1051A0002E6A5707FF0E08FA07F7BE432E6285687E
:1051B00025EA0C058560456825EA04044460C46856
:1051C00024EA0C0CC0F80CC022F0030C0CF1804453
:1051D00004F59834D4F808C895072E0F08FA06F598
:1051E00005EA0C07A0F1804CBCF5003C42D0BCF5B0
:1051F000806C42D0BCF5806C42D0BCF5806C42D053
:10520000BCF5806C42D0BCF5806C42D0BCF5806CA3
:1052100042D0BCF5806C42D0BCF5806C42D04FF0DF
:10522000090C0CFA06FCBC451FD1D4F808C82CEABE
:10523000050CC4F808C8D9F800C02CEA030CC9F85A
:1052400000C0DAF800C02CEA030CCAF800C0DBF892
:1052500000C02CEA030CCBF800C0DFF8BCC0DCF8BF
:10526000004024EA0303CCF80030521C102A85D3F6
:10527000BDE8F08F4FF0000CD3E74FF0010CD0E702
:105280004FF0020CCDE74FF0030CCAE74FF0040CCF
:10529000C7E74FF0050CC4E74FF0060CC1E74FF02D
:1052A000070CBEE74FF0080CBBE70069084201D0CD
:1052B0000120704700207047002A01D081617047AB
:1052C000090481617047426951404161704781B072
:1052D00041F480320092009AC261C1610099C161BB
:1052E000C1690091C06910F4803F02D0002001B074
:1052F0007047012001B07047704710B507490A6830
:10530000024202D00860FFF7F7FF10BD44380240A8
:10531000043C0140003C01400C3C0140143C014075
:10532000704770B50446002C04D094F85100002555
:1053300010B106E0012070BD84F850502046FFF700
:10534000EFFF022084F851002068016821F040013D
:105350000160A168606822690843E168114308435D
:1053600061690843218B01F400710843E169084336
:10537000216A0843A16A084321680860A0690421E2
:1053800001EA1040616A0843216848602168E06AC8
:1053900008612068C16921F40061C161656501206F
:1053A00084F85100002070BD704710B50446002CF1
:1053B0000ED02068016821F0400101602046FFF70F
:1053C000F3FF0020606584F8510084F8500010BDA0
:1053D000012010BD2DE9F04704460E4692461D46B9
:1053E000FBF7EDF807464FF000084FF00109BAF15E
:1053F000000F05D02068806836EA000033D05FE0F7
:105400002068806836EA00005AD0B5F1FF3F24D00A
:1054100025B1FBF7D4F8C01BA8421ED9206841680B
:1054200021F0E00141602068016821F04001016045
:10543000A06AB0F5005F09D12068016821F400512D
:1054400001602068016841F40051016084F85190C6
:1054500084F850800320BDE8F0872068806836EA31
:105460000000D2D12CE0B5F1FF3F24D025B1FBF7ED
:10547000A6F8C01BA8421ED92068416821F0E001AF
:1054800041602068016821F040010160A06AB0F528
:10549000005F09D12068016821F400510160206893
:1054A000016841F40051016084F8519084F8508003
:1054B0000320BDE8F0872068806836EA0000D2D07B
:1054C0000020BDE8F087F8B504461F4694F8510067
:1054D000012801D00220F8BDC1B1BAB194F8500042
:1054E000012815D0012684F85060122084F851005C
:1054F000002565652163A286E286E564A564A5872B
:10550000E587A06AB0F5005F04D00DE00120F8BD8A
:105510000220F8BD2068016821F400510160206874
:10552000016841F400510160A068B0F5004F04D15A
:105530002068016841F4804101602068016811F031
:10554000400F03D1016841F040010160E06828B1DB
:10555000606890B3E08E012830D039E0606810B107
:10556000E08E012808D1206B411C2163216800785E
:10557000C860E08E401EE086E08EA0B13B4600226F
:1055800002212046FFF726FF08B10320F8BD206B5B
:10559000411C216321680078C860E08E401E80B203
:1055A000E0860028EAD1A06AB0F5005F31D120681A
:1055B000016841F4805101602BE0FFE7206B216816
:1055C0000088C860206B801C2063E08E401EE0864F
:1055D000E08EA8B13B46002202212046FFF7FAFEEA
:1055E00008B10320F8BD206B21680088C860206BDB
:1055F000801C2063E08E401E80B2E0860028E9D146
:10560000A06AB0F5005F04D12068016841F48051C0
:1056100001603B46002202212046FFF7DBFE28B155
:10562000606D40F0100060650320F8BD3B4601222C
:1056300080212046FFF7CEFE28B1606D40F01000BB
:1056400060650320F8BDA06818B92068C16880684B
:10565000009084F8516084F850500020F8BDF8B5EF
:105660000446069F94F85100012803D0222801D057
:105670000220F8BD69B162B15BB194F85000012815
:1056800009D0012684F8506094F85100012804D014
:1056900006E00120F8BD0220F8BD322084F8510058
:1056A00000256565A263A387E3872163A386E3865C
:1056B000A564E564A06AB0F5005F09D120680168BF
:1056C00021F4005101602068016841F4005101603B
:1056D0002068016811F0400F03D1016841F04001DA
:1056E0000160E068B0F5006F06D06068002875D0F2
:1056F000B0F5827F7FD08AE0606828B1B0F5827F04
:105700000CD1E08E012809D1206B21680088C86087
:10571000206B801C2063E08E401EE086E08EE8B99E
:10572000A06AB0F5005F04D12068016841F480519F
:1057300001603B46002201212046FFF74BFE08B1E5
:105740000320F8BD2068C068A16B0880A06B801C96
:10575000A063E08F401EE08700F0BCB83B4600220B
:1057600002212046FFF736FE08B10320F8BD206B6A
:1057700021680088C860206B801C2063E08E401E7A
:1057800080B2E08640B9A06AB0F5005F04D120681D
:10579000016841F4805101603B460022012120460E
:1057A000FFF718FE08B10320F8BD2068C068A16BA0
:1057B0000880A06B801CA063E08F401EE087E08E15
:1057C0000028CBD1606800287AD13B460022012115
:1057D0002046FFF7FFFD18B10320F8BD0EE00AE0F8
:1057E0002068C068A16B0880A06B801CA063E08F5C
:1057F000401EE0876EE0E08E012808D1206B411C3E
:10580000216321680078C860E08E401EE086E08E4B
:10581000C8B9A06AB0F5005F04D12068016841F4FE
:10582000805101603B46002201212046FFF7D2FD56
:1058300008B10320F8BD2068C068A16B0870E08F34
:10584000401EE08746E03B46002202212046FFF74B
:10585000C1FD08B10320F8BD206B411C2163216804
:105860000078C860E08E401E80B2E08640B9A06A31
:10587000B0F5005F04D12068016841F480510160F7
:105880003B46002201212046FFF7A4FD08B103207A
:10589000F8BD2068C168A06B421CA2630170E08F54
:1058A000401EE087E08E0028CDD1606840B93B46BD
:1058B000002201212046FFF78DFD10B10320F8BD25
:1058C00008E02068C168A06B421CA2630170E08FF1
:1058D000401EE087A06AB0F5005F0FD13B46002272
:1058E00001212046FFF776FD28B1606D40F00200EF
:1058F00060650320F8BD2068C06800903B46012227
:1059000080212046FFF766FD28B1606D40F0100051
:1059100060650320F8BD84F8516020688168C1F398
:105920000011A26AB2F5005F11D181B1616D41F041
:1059300002016165016821F400510160206801687D
:1059400041F40051016084F850500120F8BD84F802
:1059500050500020F8BDF0B583B004461F4694F8BF
:105960005100012802D003B00220F0BDC1B1BAB18C
:1059700094F85000012816D0012684F850602220A7
:1059800084F8510000256565A163A287E287A564BC
:10599000E564A586E586A068B0F5004F06D00AE06C
:1059A00003B00120F0BD03B00220F0BD2068036801
:1059B00023F480430360A06AB0F5005F09D120683A
:1059C000036823F4005303602068036843F4005322
:1059D00003606068B0F5827F01D1A06828B12068BB
:1059E000016811F0400F0AD00DE084F850501346C2
:1059F0000A4620460097FFF732FE03B0F0BD01686B
:105A000041F040010160E06860B1E08F012839D9C0
:105A10003B46002201212046FFF7DCFC28B303B0FF
:105A20000320F0BDE08F012815D93B46002201215B
:105A30002046FFF7CFFC10B103B00320F0BD206873
:105A4000C168A06B421CA2630170E08F401E80B24F
:105A5000E0870128E9D8A06AB0F5005F1BD1206873
:105A6000016841F48051016015E02068C068A16BB5
:105A70000880A06B801CA063E08F401E80B2E0878E
:105A80000128C5D8A06AB0F5005F04D1206801687C
:105A900041F4805101603B46002201212046FFF77E
:105AA00099FC10B103B00320F0BDE06870B120682C
:105AB000C068A16B0880A06B801CA063E08F401EB3
:105AC000E087A06AB0F5005F07D017E02068C168E2
:105AD000A06B421CA2630170F0E73B46002201214B
